:020000040000FA
:060000000A128A11F52F1F
:100C26000030831203138C1A013008008312031359
:100C36008C1E192E1A080800F00083160313981C40
:100C4600202E700883120313990008005330F20017
:100C5600F20B2B2E831203131F151F19302E1E089D
:100C6600F100831603131E08F0000800FF308316F8
:100C76000313850006308700003083120313A90092
:100C86000030A8002530A7008030A6000A128A117D
:100C96001F270A128A119130831203139F00C03056
:100CA600831603139F000A128A1129260A128A1133
:100CB600710883120313B7007008B6003708FB00EB
:100CC6007B08B9003608FB007B08BA000A128A11B5
:100CD60013260A128A11003A0319562E0A128A118D
:100CE60019260A128A11FB007B0883120313B80027
:100CF6003803031D852E39080A128A111F260A1287
:100D06008A11562E02303806031D562E3A080A124C
:100D16008A111F260A128A11562E83120313A10165
:100D2600F31FA22EF009F109F209F309F00A0319DB
:100D3600F10A0319F20A0319F30AA101A10AF71F1E
:100D4600B32EF409F509F609F709F40A0319F50AA9
:100D56000319F60A0319F70A0130F8007808A10604
:100D66000030A5000030A4000030A3000030A2002F
:100D760073087204710470040319082FA001A00AF5
:100D8600F31BD32E0130F8000310F00DF10DF20D18
:100D9600F30DF80BC72E0130F8007808A007C32E14
:100DA6000130F8000310A20DA30DA40DA50DF80B3C
:100DB600D52E73087702031DEA2E72087602031DEC
:100DC600EA2E71087502031DEA2E70087402031CD0
:100DD600FB2E7008F4027108031C710FF5027208ED
:100DE600031C720FF6027308031C730FF70222141A
:100DF60001300310F30CF20CF10CF00CFF3E031D56
:100E0600FC2E0130A002031DD32E21080319162F34
:100E1600A209A309A409A509A20A0319A30A031989
:100E2600A40A0319A50A2508F3002408F2002308DA
:100E3600F1002208F0000800831203132608AA0016
:100E46002708AB002808AC002908AD0006300310BF
:100E5600AA0DAB0DAC0DAD0DFF3E031D2A2F2D08BF
:100E6600F3002C08F2002B08F1002A08F0002608EF
:100E7600AE002708AF002808B0002908B1000630E8
:100E86000310AE0DAF0DB00DB10DFF3E031D432F88
:100E96000030B2002D30B3003130B4000130B5005F
:100EA6002E08B2022F08031C2F0F5A2F5B2FB302F6
:100EB6003008031C300F602F612FB4023108031C69
:100EC600310F662F672FB5023508F7003408F60094
:100ED6003308F5003208F4000A128A1190260A1225
:100EE6008A117108FA007008F90001307A020030A0
:100EF60003197902031CDB2F831203132608AA00A9
:100F06002708AB002808AC002908AD000430031000
:100F1600AA0DAB0DAC0DAD0DFF3E031D8A2F2D089E
:100F2600F3002C08F2002B08F1002A08F00026082E
:100F3600AE002708AF002808B0002908B100043029
:100F46000310AE0DAF0DB00DB10DFF3E031DA32F67
:100F56000030B2002D30B3003130B4000130B5009E
:100F66002E08B2022F08031C2F0FBA2FBB2FB30275
:100F76003008031C300FC02FC12FB4023108031CE8
:100F8600310FC62FC72FB5023508F7003408F60013
:100F96003308F5003208F4000A128A1190260A1264
:100FA6008A117108FA007008F900831603131815E0
:100FB60001307A0200300319790203180800790813
:100FC60083160313990018128312031398178316B6
:100FD60003138717071783120313181683160313B1
:100FE6009816080083120313B601B701B801B901B8
:0A0FF600BA0183010A128A11392E94
:02400E007A3FF7
:00000001FF
